{
  "contractName": "BtcPriceGetter",
  "abi": [
    {
      "constant": true,
      "inputs": [],
      "name": "bitcoinPrice",
      "outputs": [
        {
          "name": "",
          "type": "uint256"
        }
      ],
      "payable": false,
      "stateMutability": "view",
      "type": "function"
    },
    {
      "inputs": [],
      "payable": false,
      "stateMutability": "nonpayable",
      "type": "constructor"
    },
    {
      "anonymous": false,
      "inputs": [
        {
          "indexed": false,
          "name": "description",
          "type": "string"
        }
      ],
      "name": "newOraclizeQuery",
      "type": "event"
    },
    {
      "anonymous": false,
      "inputs": [
        {
          "indexed": false,
          "name": "description",
          "type": "string"
        }
      ],
      "name": "newOraclizeQueryFailed",
      "type": "event"
    },
    {
      "anonymous": false,
      "inputs": [
        {
          "indexed": false,
          "name": "myid",
          "type": "bytes32"
        },
        {
          "indexed": false,
          "name": "price",
          "type": "uint256"
        }
      ],
      "name": "newKrakenPriceTicker",
      "type": "event"
    },
    {
      "constant": false,
      "inputs": [
        {
          "name": "myid",
          "type": "bytes32"
        },
        {
          "name": "result",
          "type": "string"
        }
      ],
      "name": "__callback",
      "outputs": [],
      "payable": false,
      "stateMutability": "nonpayable",
      "type": "function"
    },
    {
      "constant": false,
      "inputs": [
        {
          "name": "myid",
          "type": "bytes32"
        },
        {
          "name": "result",
          "type": "string"
        },
        {
          "name": "proof",
          "type": "bytes"
        }
      ],
      "name": "__callback",
      "outputs": [],
      "payable": false,
      "stateMutability": "nonpayable",
      "type": "function"
    },
    {
      "constant": false,
      "inputs": [
        {
          "name": "delay",
          "type": "uint256"
        }
      ],
      "name": "updatePrice",
      "outputs": [],
      "payable": true,
      "stateMutability": "payable",
      "type": "function"
    }
  ],
  "bytecode": "0x60806040523480156200001157600080fd5b506200002760006401000000006200002d810204565b62000e1b565b60408051808201909152600381527f55524c0000000000000000000000000000000000000000000000000000000000602082015230319062000078906401000000006200028f810204565b11156200013157604080516020808252604b908201527f4f7261636c697a6520717565727920776173204e4f542073656e742c20706c65818301527f6173652061646420736f6d652045544820746f20636f76657220666f7220746860608201527f6520717565727920666565000000000000000000000000000000000000000000608082015290517febfd093e23e1dfa73590131dccff2037e056ac2c58e287c5670578093b32653f9181900360a00190a16200028c565b6040805160208082526035908201527f4f7261636c697a65207175657279207761732073656e742c207374616e64696e818301527f6720627920666f722074686520616e737765722e2e0000000000000000000000606082015290517f46cb989ef9cef13e930e3b7f286225a086e716a90d63e0b7da85d310a9db0c9a9181900360800190a16200028a816040805190810160405280600381526020017f55524c0000000000000000000000000000000000000000000000000000000000815250608060405190810160405280604c81526020017f6a736f6e2868747470733a2f2f6170692e6b72616b656e2e636f6d2f302f707581526020017f626c69632f5469636b65723f706169723d584254555344292e726573756c742e81526020017f585842545a5553442e632e3000000000000000000000000000000000000000008152506200054a640100000000026401000000009004565b505b50565b60008054600160a060020a03161580620002c65750600054620002c490600160a060020a03166401000000006200099e810204565b155b15620002e357620002e16000640100000000620009a2810204565b505b6000809054906101000a9004600160a060020a0316600160a060020a03166338cc48316040518163ffffffff167c0100000000000000000000000000000000000000000000000000000000028152600401602060405180830381600087803b1580156200034f57600080fd5b505af115801562000364573d6000803e3d6000fd5b505050506040513d60208110156200037b57600080fd5b5051600154600160a060020a039081169116146200044d576000809054906101000a9004600160a060020a0316600160a060020a03166338cc48316040518163ffffffff167c0100000000000000000000000000000000000000000000000000000000028152600401602060405180830381600087803b158015620003ff57600080fd5b505af115801562000414573d6000803e3d6000fd5b505050506040513d60208110156200042b57600080fd5b505160018054600160a060020a031916600160a060020a039092169190911790555b6001546040517f524f3889000000000000000000000000000000000000000000000000000000008152602060048201818152855160248401528551600160a060020a039094169363524f388993879383926044909201919085019080838360005b83811015620004c8578181015183820152602001620004ae565b50505050905090810190601f168015620004f65780820380516001836020036101000a031916815260200191505b5092505050602060405180830381600087803b1580156200051657600080fd5b505af11580156200052b573d6000803e3d6000fd5b505050506040513d60208110156200054257600080fd5b505192915050565b600080548190600160a060020a031615806200058357506000546200058190600160a060020a03166401000000006200099e810204565b155b15620005a0576200059e6000640100000000620009a2810204565b505b6000809054906101000a9004600160a060020a0316600160a060020a03166338cc48316040518163ffffffff167c0100000000000000000000000000000000000000000000000000000000028152600401602060405180830381600087803b1580156200060c57600080fd5b505af115801562000621573d6000803e3d6000fd5b505050506040513d60208110156200063857600080fd5b5051600154600160a060020a039081169116146200070a576000809054906101000a9004600160a060020a0316600160a060020a03166338cc48316040518163ffffffff167c0100000000000000000000000000000000000000000000000000000000028152600401602060405180830381600087803b158015620006bc57600080fd5b505af1158015620006d1573d6000803e3d6000fd5b505050506040513d6020811015620006e857600080fd5b505160018054600160a060020a031916600160a060020a039092169190911790555b6001546040517f524f3889000000000000000000000000000000000000000000000000000000008152602060048201818152875160248401528751600160a060020a039094169363524f388993899383926044909201919085019080838360005b83811015620007855781810151838201526020016200076b565b50505050905090810190601f168015620007b35780820380516001836020036101000a031916815260200191505b5092505050602060405180830381600087803b158015620007d357600080fd5b505af1158015620007e8573d6000803e3d6000fd5b505050506040513d6020811015620007ff57600080fd5b50519050670de0b6b3a764000062030d403a020181111562000825576000915062000996565b6001546040517fadf59f9900000000000000000000000000000000000000000000000000000000815260048101878152606060248301908152875160648401528751600160a060020a039094169363adf59f999386938b938b938b936044810191608490910190602087019080838360005b83811015620008b157818101518382015260200162000897565b50505050905090810190601f168015620008df5780820380516001836020036101000a031916815260200191505b50838103825284518152845160209182019186019080838360005b8381101562000914578181015183820152602001620008fa565b50505050905090810190601f168015620009425780820380516001836020036101000a031916815260200191505b50955050505050506020604051808303818588803b1580156200096457600080fd5b505af115801562000979573d6000803e3d6000fd5b50505050506040513d60208110156200099157600080fd5b505191505b509392505050565b3b90565b6000620009b7640100000000620009bd810204565b92915050565b600080620009e8731d3b2638a7cc9f2cb3d298a3da7a90b67e5506ed6401000000006200099e810204565b111562000a665760008054600160a060020a031916731d3b2638a7cc9f2cb3d298a3da7a90b67e5506ed17905560408051808201909152600b81527f6574685f6d61696e6e6574000000000000000000000000000000000000000000602082015262000a5d9064010000000062000d6a810204565b50600162000d67565b600062000a9073c03a2615d5efaf5f49f60b7bb6583eaec212fdf16401000000006200099e810204565b111562000b055760008054600160a060020a03191673c03a2615d5efaf5f49f60b7bb6583eaec212fdf117905560408051808201909152600c81527f6574685f726f707374656e330000000000000000000000000000000000000000602082015262000a5d9064010000000062000d6a810204565b600062000b2f73b7a07bcf2ba2f2703b24c0691b5278999c59ac7e6401000000006200099e810204565b111562000ba45760008054600160a060020a03191673b7a07bcf2ba2f2703b24c0691b5278999c59ac7e17905560408051808201909152600981527f6574685f6b6f76616e0000000000000000000000000000000000000000000000602082015262000a5d9064010000000062000d6a810204565b600062000bce73146500cfd35b22e4a392fe0adc06de1a1368ed486401000000006200099e810204565b111562000c435760008054600160a060020a03191673146500cfd35b22e4a392fe0adc06de1a1368ed4817905560408051808201909152600b81527f6574685f72696e6b656279000000000000000000000000000000000000000000602082015262000a5d9064010000000062000d6a810204565b600062000c6d736f485c8bf6fc43ea212e93bbf8ce046c7f1cb4756401000000006200099e810204565b111562000ca3575060008054600160a060020a031916736f485c8bf6fc43ea212e93bbf8ce046c7f1cb475179055600162000d67565b600062000ccd7320e12a1f859b3feae5fb2a0a32c18f5a65555bbf6401000000006200099e810204565b111562000d03575060008054600160a060020a0319167320e12a1f859b3feae5fb2a0a32c18f5a65555bbf179055600162000d67565b600062000d2d7351efaf4c8b3c9afbd5ab9f4bbc82784ab6ef8faa6401000000006200099e810204565b111562000d63575060008054600160a060020a0319167351efaf4c8b3c9afbd5ab9f4bbc82784ab6ef8faa179055600162000d67565b5060005b90565b80516200028a906002906020840190828054600181600116156101000203166002900490600052602060002090601f016020900481019282601f1062000dbc57805160ff191683800117855562000dec565b8280016001018555821562000dec579182015b8281111562000dec57825182559160200191906001019062000dcf565b5062000dfa92915062000dfe565b5090565b62000d6791905b8082111562000dfa576000815560010162000e05565b61125f8062000e2b6000396000f3006080604052600436106100485763ffffffff60e060020a60003504166327dc297e811461004d57806338bbfa50146100ad5780638d6cc56d14610149578063f9ddf3ed14610154575b600080fd5b34801561005957600080fd5b5060408051602060046024803582810135601f81018590048502860185019096528585526100ab95833595369560449491939091019190819084018382808284375094975061017b9650505050505050565b005b3480156100b957600080fd5b5060408051602060046024803582810135601f81018590048502860185019096528585526100ab95833595369560449491939091019190819084018382808284375050604080516020601f89358b018035918201839004830284018301909452808352979a99988101979196509182019450925082915084018382808284375094975061019b9650505050505050565b6100ab600435610207565b34801561016057600080fd5b50610169610449565b60408051918252519081900360200190f35b604080516000815260208101909152610197908390839061019b565b5050565b6101a361044f565b600160a060020a031633146101b757600080fd5b6101c2826002610641565b600581905560408051858152602081019290925280517f0e38e25a65ef55714eeae860b64a704ae6ec0abf819f791e9303dafca29f18fa9281900390910190a1505050565b60408051808201909152600381527f55524c00000000000000000000000000000000000000000000000000000000006020820152303190610247906107fb565b11156102fe57604080516020808252604b908201527f4f7261636c697a6520717565727920776173204e4f542073656e742c20706c65818301527f6173652061646420736f6d652045544820746f20636f76657220666f7220746860608201527f6520717565727920666565000000000000000000000000000000000000000000608082015290517febfd093e23e1dfa73590131dccff2037e056ac2c58e287c5670578093b32653f9181900360a00190a1610446565b6040805160208082526035908201527f4f7261636c697a65207175657279207761732073656e742c207374616e64696e818301527f6720627920666f722074686520616e737765722e2e0000000000000000000000606082015290517f46cb989ef9cef13e930e3b7f286225a086e716a90d63e0b7da85d310a9db0c9a9181900360800190a1610197816040805190810160405280600381526020017f55524c0000000000000000000000000000000000000000000000000000000000815250608060405190810160405280604c81526020017f6a736f6e2868747470733a2f2f6170692e6b72616b656e2e636f6d2f302f707581526020017f626c69632f5469636b65723f706169723d584254555344292e726573756c742e81526020017f585842545a5553442e632e300000000000000000000000000000000000000000815250610a5f565b50565b60055481565b60008054600160a060020a0316158061047a575060005461047890600160a060020a0316610e51565b155b1561048b576104896000610e55565b505b6000809054906101000a9004600160a060020a0316600160a060020a03166338cc48316040518163ffffffff1660e060020a028152600401602060405180830381600087803b1580156104dd57600080fd5b505af11580156104f1573d6000803e3d6000fd5b505050506040513d602081101561050757600080fd5b5051600154600160a060020a039081169116146105bc576000809054906101000a9004600160a060020a0316600160a060020a03166338cc48316040518163ffffffff1660e060020a028152600401602060405180830381600087803b15801561057057600080fd5b505af1158015610584573d6000803e3d6000fd5b505050506040513d602081101561059a57600080fd5b505160018054600160a060020a031916600160a060020a039092169190911790555b600160009054906101000a9004600160a060020a0316600160a060020a031663c281d19e6040518163ffffffff1660e060020a028152600401602060405180830381600087803b15801561060f57600080fd5b505af1158015610623573d6000803e3d6000fd5b505050506040513d602081101561063957600080fd5b505190505b90565b6000828180805b83518110156107de5783517f30000000000000000000000000000000000000000000000000000000000000009085908390811061068157fe5b90602001015160f860020a900460f860020a027effffffffffffffffffffffffffffffffffffffffffffffffffffffffffffff191610158015610727575083517f3900000000000000000000000000000000000000000000000000000000000000908590839081106106ef57fe5b90602001015160f860020a900460f860020a027effffffffffffffffffffffffffffffffffffffffffffffffffffffffffffff191611155b156107805781156107465785151561073e576107de565b600019909501945b600a830292506030848281518110151561075c57fe5b90602001015160f860020a900460f860020a0260f860020a900403830192506107d6565b838181518110151561078e57fe5b90602001015160f860020a900460f860020a027effffffffffffffffffffffffffffffffffffffffffffffffffffffffffffff1916602e60f860020a0214156107d657600191505b600101610648565b60008611156107f05785600a0a830292505b509095945050505050565b60008054600160a060020a03161580610826575060005461082490600160a060020a0316610e51565b155b15610837576108356000610e55565b505b6000809054906101000a9004600160a060020a0316600160a060020a03166338cc48316040518163ffffffff1660e060020a028152600401602060405180830381600087803b15801561088957600080fd5b505af115801561089d573d6000803e3d6000fd5b505050506040513d60208110156108b357600080fd5b5051600154600160a060020a03908116911614610968576000809054906101000a9004600160a060020a0316600160a060020a03166338cc48316040518163ffffffff1660e060020a028152600401602060405180830381600087803b15801561091c57600080fd5b505af1158015610930573d6000803e3d6000fd5b505050506040513d602081101561094657600080fd5b505160018054600160a060020a031916600160a060020a039092169190911790555b6001546040517f524f3889000000000000000000000000000000000000000000000000000000008152602060048201818152855160248401528551600160a060020a039094169363524f388993879383926044909201919085019080838360005b838110156109e15781810151838201526020016109c9565b50505050905090810190601f168015610a0e5780820380516001836020036101000a031916815260200191505b5092505050602060405180830381600087803b158015610a2d57600080fd5b505af1158015610a41573d6000803e3d6000fd5b505050506040513d6020811015610a5757600080fd5b505192915050565b600080548190600160a060020a03161580610a8c5750600054610a8a90600160a060020a0316610e51565b155b15610a9d57610a9b6000610e55565b505b6000809054906101000a9004600160a060020a0316600160a060020a03166338cc48316040518163ffffffff1660e060020a028152600401602060405180830381600087803b158015610aef57600080fd5b505af1158015610b03573d6000803e3d6000fd5b505050506040513d6020811015610b1957600080fd5b5051600154600160a060020a03908116911614610bce576000809054906101000a9004600160a060020a0316600160a060020a03166338cc48316040518163ffffffff1660e060020a028152600401602060405180830381600087803b158015610b8257600080fd5b505af1158015610b96573d6000803e3d6000fd5b505050506040513d6020811015610bac57600080fd5b505160018054600160a060020a031916600160a060020a039092169190911790555b6001546040517f524f3889000000000000000000000000000000000000000000000000000000008152602060048201818152875160248401528751600160a060020a039094169363524f388993899383926044909201919085019080838360005b83811015610c47578181015183820152602001610c2f565b50505050905090810190601f168015610c745780820380516001836020036101000a031916815260200191505b5092505050602060405180830381600087803b158015610c9357600080fd5b505af1158015610ca7573d6000803e3d6000fd5b505050506040513d6020811015610cbd57600080fd5b50519050670de0b6b3a764000062030d403a0201811115610ce15760009150610e49565b6001546040517fadf59f9900000000000000000000000000000000000000000000000000000000815260048101878152606060248301908152875160648401528751600160a060020a039094169363adf59f999386938b938b938b936044810191608490910190602087019080838360005b83811015610d6b578181015183820152602001610d53565b50505050905090810190601f168015610d985780820380516001836020036101000a031916815260200191505b50838103825284518152845160209182019186019080838360005b83811015610dcb578181015183820152602001610db3565b50505050905090810190601f168015610df85780820380516001836020036101000a031916815260200191505b50955050505050506020604051808303818588803b158015610e1957600080fd5b505af1158015610e2d573d6000803e3d6000fd5b50505050506040513d6020811015610e4457600080fd5b505191505b509392505050565b3b90565b6000610e5f610e65565b92915050565b600080610e85731d3b2638a7cc9f2cb3d298a3da7a90b67e5506ed610e51565b1115610ef65760008054600160a060020a031916731d3b2638a7cc9f2cb3d298a3da7a90b67e5506ed17905560408051808201909152600b81527f6574685f6d61696e6e65740000000000000000000000000000000000000000006020820152610eee9061118d565b50600161063e565b6000610f1573c03a2615d5efaf5f49f60b7bb6583eaec212fdf1610e51565b1115610f7e5760008054600160a060020a03191673c03a2615d5efaf5f49f60b7bb6583eaec212fdf117905560408051808201909152600c81527f6574685f726f707374656e3300000000000000000000000000000000000000006020820152610eee9061118d565b6000610f9d73b7a07bcf2ba2f2703b24c0691b5278999c59ac7e610e51565b11156110065760008054600160a060020a03191673b7a07bcf2ba2f2703b24c0691b5278999c59ac7e17905560408051808201909152600981527f6574685f6b6f76616e00000000000000000000000000000000000000000000006020820152610eee9061118d565b600061102573146500cfd35b22e4a392fe0adc06de1a1368ed48610e51565b111561108e5760008054600160a060020a03191673146500cfd35b22e4a392fe0adc06de1a1368ed4817905560408051808201909152600b81527f6574685f72696e6b6562790000000000000000000000000000000000000000006020820152610eee9061118d565b60006110ad736f485c8bf6fc43ea212e93bbf8ce046c7f1cb475610e51565b11156110e1575060008054600160a060020a031916736f485c8bf6fc43ea212e93bbf8ce046c7f1cb475179055600161063e565b60006111007320e12a1f859b3feae5fb2a0a32c18f5a65555bbf610e51565b1115611134575060008054600160a060020a0319167320e12a1f859b3feae5fb2a0a32c18f5a65555bbf179055600161063e565b60006111537351efaf4c8b3c9afbd5ab9f4bbc82784ab6ef8faa610e51565b1115611187575060008054600160a060020a0319167351efaf4c8b3c9afbd5ab9f4bbc82784ab6ef8faa179055600161063e565b50600090565b8051610197906002906020840190828054600181600116156101000203166002900490600052602060002090601f016020900481019282601f106111dc57805160ff1916838001178555611209565b82800160010185558215611209579182015b828111156112095782518255916020019190600101906111ee565b50611215929150611219565b5090565b61063e91905b80821115611215576000815560010161121f5600a165627a7a723058204d07c2af976eac3c517bd3a3a833ccb5d00c9c2e7b51c46b4f45f0c587e6141f0029",
  "source": "pragma solidity ^0.4.24;\nimport '../installed_contracts/oraclize-api/contracts/usingOraclize.sol';\n\ncontract BtcPriceGetter is usingOraclize {\n\n    uint public bitcoinPrice;\n\n    event newOraclizeQuery(string description);\n    event newOraclizeQueryFailed(string description);\n    event newKrakenPriceTicker(bytes32 myid,uint price);\n\n    constructor() public {\n        updatePrice(0);\n    }\n\n    function __callback(bytes32 myid, string result, bytes proof) public {\n        require(msg.sender == oraclize_cbAddress());\n        bitcoinPrice = parseInt(result, 2); // save it in storage as $ cents\n        emit newKrakenPriceTicker(myid, bitcoinPrice);\n    }\n\n    function updatePrice(uint delay) public payable {\n        if (oraclize_getPrice(\"URL\") > address(this).balance) {\n            emit newOraclizeQueryFailed(\"Oraclize query was NOT sent, please add some ETH to cover for the query fee\");\n        } else {\n            emit newOraclizeQuery(\"Oraclize query was sent, standing by for the answer..\");\n            oraclize_query(delay, \"URL\", \"json(https://api.kraken.com/0/public/Ticker?pair=XBTUSD).result.XXBTZUSD.c.0\");\n        }\n    }\n}",
  "sourcePath": "/home/alex/Documentos/Proyectos/chivilcoin-frontend/chivilcoin/contracts/BtcPriceGetter.sol",
  "compiler": {
    "name": "solc",
    "version": "0.4.24+commit.e67f0147.Emscripten.clang"
  },
  "schemaVersion": "2.0.1",
  "updatedAt": "2018-09-07T15:14:14.692Z"
}