{
  "contractName": "Chivilcoin",
  "abi": [
    {
      "constant": true,
      "inputs": [],
      "name": "name",
      "outputs": [
        {
          "name": "",
          "type": "string"
        }
      ],
      "payable": false,
      "stateMutability": "view",
      "type": "function"
    },
    {
      "constant": true,
      "inputs": [
        {
          "name": "_operator",
          "type": "address"
        },
        {
          "name": "_role",
          "type": "string"
        }
      ],
      "name": "checkRole",
      "outputs": [],
      "payable": false,
      "stateMutability": "view",
      "type": "function"
    },
    {
      "constant": true,
      "inputs": [],
      "name": "totalSupply",
      "outputs": [
        {
          "name": "",
          "type": "uint256"
        }
      ],
      "payable": false,
      "stateMutability": "view",
      "type": "function"
    },
    {
      "constant": true,
      "inputs": [],
      "name": "ROLE_WHITELISTED",
      "outputs": [
        {
          "name": "",
          "type": "string"
        }
      ],
      "payable": false,
      "stateMutability": "view",
      "type": "function"
    },
    {
      "constant": true,
      "inputs": [
        {
          "name": "_operator",
          "type": "address"
        },
        {
          "name": "_role",
          "type": "string"
        }
      ],
      "name": "hasRole",
      "outputs": [
        {
          "name": "",
          "type": "bool"
        }
      ],
      "payable": false,
      "stateMutability": "view",
      "type": "function"
    },
    {
      "constant": false,
      "inputs": [
        {
          "name": "_operators",
          "type": "address[]"
        }
      ],
      "name": "removeAddressesFromWhitelist",
      "outputs": [],
      "payable": false,
      "stateMutability": "nonpayable",
      "type": "function"
    },
    {
      "constant": false,
      "inputs": [
        {
          "name": "_operator",
          "type": "address"
        }
      ],
      "name": "removeAddressFromWhitelist",
      "outputs": [],
      "payable": false,
      "stateMutability": "nonpayable",
      "type": "function"
    },
    {
      "constant": true,
      "inputs": [],
      "name": "decimals",
      "outputs": [
        {
          "name": "",
          "type": "uint8"
        }
      ],
      "payable": false,
      "stateMutability": "view",
      "type": "function"
    },
    {
      "constant": true,
      "inputs": [
        {
          "name": "_owner",
          "type": "address"
        }
      ],
      "name": "balanceOf",
      "outputs": [
        {
          "name": "",
          "type": "uint256"
        }
      ],
      "payable": false,
      "stateMutability": "view",
      "type": "function"
    },
    {
      "constant": false,
      "inputs": [],
      "name": "renounceOwnership",
      "outputs": [],
      "payable": false,
      "stateMutability": "nonpayable",
      "type": "function"
    },
    {
      "constant": false,
      "inputs": [
        {
          "name": "_operator",
          "type": "address"
        }
      ],
      "name": "addAddressToWhitelist",
      "outputs": [],
      "payable": false,
      "stateMutability": "nonpayable",
      "type": "function"
    },
    {
      "constant": true,
      "inputs": [],
      "name": "owner",
      "outputs": [
        {
          "name": "",
          "type": "address"
        }
      ],
      "payable": false,
      "stateMutability": "view",
      "type": "function"
    },
    {
      "constant": true,
      "inputs": [],
      "name": "symbol",
      "outputs": [
        {
          "name": "",
          "type": "string"
        }
      ],
      "payable": false,
      "stateMutability": "view",
      "type": "function"
    },
    {
      "constant": true,
      "inputs": [
        {
          "name": "_operator",
          "type": "address"
        }
      ],
      "name": "whitelist",
      "outputs": [
        {
          "name": "",
          "type": "bool"
        }
      ],
      "payable": false,
      "stateMutability": "view",
      "type": "function"
    },
    {
      "constant": false,
      "inputs": [
        {
          "name": "_operators",
          "type": "address[]"
        }
      ],
      "name": "addAddressesToWhitelist",
      "outputs": [],
      "payable": false,
      "stateMutability": "nonpayable",
      "type": "function"
    },
    {
      "constant": false,
      "inputs": [
        {
          "name": "_newOwner",
          "type": "address"
        }
      ],
      "name": "transferOwnership",
      "outputs": [],
      "payable": false,
      "stateMutability": "nonpayable",
      "type": "function"
    },
    {
      "inputs": [],
      "payable": false,
      "stateMutability": "nonpayable",
      "type": "constructor"
    },
    {
      "payable": false,
      "stateMutability": "nonpayable",
      "type": "fallback"
    },
    {
      "anonymous": false,
      "inputs": [
        {
          "indexed": true,
          "name": "from",
          "type": "address"
        },
        {
          "indexed": true,
          "name": "to",
          "type": "address"
        },
        {
          "indexed": false,
          "name": "value",
          "type": "uint256"
        }
      ],
      "name": "Transfer",
      "type": "event"
    },
    {
      "anonymous": false,
      "inputs": [
        {
          "indexed": true,
          "name": "operator",
          "type": "address"
        },
        {
          "indexed": false,
          "name": "role",
          "type": "string"
        }
      ],
      "name": "RoleAdded",
      "type": "event"
    },
    {
      "anonymous": false,
      "inputs": [
        {
          "indexed": true,
          "name": "operator",
          "type": "address"
        },
        {
          "indexed": false,
          "name": "role",
          "type": "string"
        }
      ],
      "name": "RoleRemoved",
      "type": "event"
    },
    {
      "anonymous": false,
      "inputs": [
        {
          "indexed": true,
          "name": "previousOwner",
          "type": "address"
        }
      ],
      "name": "OwnershipRenounced",
      "type": "event"
    },
    {
      "anonymous": false,
      "inputs": [
        {
          "indexed": true,
          "name": "previousOwner",
          "type": "address"
        },
        {
          "indexed": true,
          "name": "newOwner",
          "type": "address"
        }
      ],
      "name": "OwnershipTransferred",
      "type": "event"
    },
    {
      "constant": false,
      "inputs": [
        {
          "name": "_to",
          "type": "address"
        },
        {
          "name": "_value",
          "type": "uint256"
        }
      ],
      "name": "transfer",
      "outputs": [
        {
          "name": "",
          "type": "bool"
        }
      ],
      "payable": false,
      "stateMutability": "nonpayable",
      "type": "function"
    }
  ],
  "bytecode": "0x6004805460026001605060020a031990911617605060020a60a060020a0319166a0a00000000000000000000179055606460055560c0604052600a60808190527f43686976696c636f696e0000000000000000000000000000000000000000000060a09081526100729160069190610102565b506040805180820190915260038082527f434843000000000000000000000000000000000000000000000000000000000060209092019182526100b791600791610102565b506008805460ff191660041790553480156100d157600080fd5b5060008054600160a060020a031916339081178255620186a06003819055908252600260205260409091205561019d565b828054600181600116156101000203166002900490600052602060002090601f016020900481019282601f1061014357805160ff1916838001178555610170565b82800160010185558215610170579182015b82811115610170578251825591602001919060010190610155565b5061017c929150610180565b5090565b61019a91905b8082111561017c5760008155600101610186565b90565b610eec80620001ad6000396000f3006080604052600436106100f05763ffffffff7c010000000000000000000000000000000000000000000000000000000060003504166306fdde0381146100ff5780630988ca8c1461018957806318160ddd146101f257806318b919e914610219578063217fe6c61461022e57806324953eaa146102a9578063286dd3f5146102fe578063313ce5671461031f57806370a082311461034a578063715018a61461036b5780637b9417c8146103805780638da5cb5b146103a157806395d89b41146103d25780639b19251a146103e7578063a9059cbb14610408578063e2ec6ec31461042c578063f2fde38b14610481575b3480156100fc57600080fd5b50005b34801561010b57600080fd5b506101146104a2565b6040805160208082528351818301528351919283929083019185019080838360005b8381101561014e578181015183820152602001610136565b50505050905090810190601f16801561017b5780820380516001836020036101000a031916815260200191505b509250505060405180910390f35b34801561019557600080fd5b5060408051602060046024803582810135601f81018590048502860185019096528585526101f0958335600160a060020a03169536956044949193909101919081908401838280828437509497506105309650505050505050565b005b3480156101fe57600080fd5b5061020761059e565b60408051918252519081900360200190f35b34801561022557600080fd5b506101146105a4565b34801561023a57600080fd5b5060408051602060046024803582810135601f8101859004850286018501909652858552610295958335600160a060020a03169536956044949193909101919081908401838280828437509497506105c99650505050505050565b604080519115158252519081900360200190f35b3480156102b557600080fd5b50604080516020600480358082013583810280860185019096528085526101f09536959394602494938501929182918501908490808284375094975061063e9650505050505050565b34801561030a57600080fd5b506101f0600160a060020a036004351661068b565b34801561032b57600080fd5b506103346106d2565b6040805160ff9092168252519081900360200190f35b34801561035657600080fd5b50610207600160a060020a03600435166106db565b34801561037757600080fd5b506101f06106f6565b34801561038c57600080fd5b506101f0600160a060020a0360043516610762565b3480156103ad57600080fd5b506103b66107a6565b60408051600160a060020a039092168252519081900360200190f35b3480156103de57600080fd5b506101146107b5565b3480156103f357600080fd5b50610295600160a060020a0360043516610810565b34801561041457600080fd5b50610295600160a060020a036004351660243561083f565b34801561043857600080fd5b50604080516020600480358082013583810280860185019096528085526101f0953695939460249493850192918291850190849080828437509497506109319650505050505050565b34801561048d57600080fd5b506101f0600160a060020a036004351661097e565b6006805460408051602060026001851615610100026000190190941693909304601f810184900484028201840190925281815292918301828280156105285780601f106104fd57610100808354040283529160200191610528565b820191906000526020600020905b81548152906001019060200180831161050b57829003601f168201915b505050505081565b61059a826001836040518082805190602001908083835b602083106105665780518252601f199092019160209182019101610547565b51815160209384036101000a600019018019909216911617905292019485525060405193849003019092209291505061099e565b5050565b60035490565b6040805180820190915260098152600080516020610ea1833981519152602082015281565b6000610635836001846040518082805190602001908083835b602083106106015780518252601f1990920191602091820191016105e2565b51815160209384036101000a60001901801990921691161790529201948552506040519384900301909220929150506109b3565b90505b92915050565b60008054600160a060020a0316331461065657600080fd5b5060005b815181101561059a57610683828281518110151561067457fe5b9060200190602002015161068b565b60010161065a565b600054600160a060020a031633146106a257600080fd5b6106cf81604080519081016040528060098152602001600080516020610ea18339815191528152506109d2565b50565b60085460ff1681565b600160a060020a031660009081526002602052604090205490565b600054600160a060020a0316331461070d57600080fd5b60008054604051600160a060020a03909116917ff8df31144d9c2f0f6b59d69b8b98abd5459d07f2742c4df920b25aae33c6482091a26000805473ffffffffffffffffffffffffffffffffffffffff19169055565b600054600160a060020a0316331461077957600080fd5b6106cf81604080519081016040528060098152602001600080516020610ea1833981519152815250610ae3565b600054600160a060020a031681565b6007805460408051602060026001851615610100026000190190941693909304601f810184900484028201840190925281815292918301828280156105285780601f106104fd57610100808354040283529160200191610528565b600061063882604080519081016040528060098152602001600080516020610ea18339815191528152506105c9565b6000803361087081604080519081016040528060098152602001600080516020610ea1833981519152815250610530565b60055484908110156108e357604080517f08c379a000000000000000000000000000000000000000000000000000000000815260206004820152601e60248201527f4d757920706f636f732063686976696c636f696e732c20726174c3b36e210000604482015290519081900360640190fd5b8561091181604080519081016040528060098152602001600080516020610ea1833981519152815250610530565b61091a86610bb5565b93506109268785610c9e565b505050505092915050565b60008054600160a060020a0316331461094957600080fd5b5060005b815181101561059a57610976828281518110151561096757fe5b90602001906020020151610762565b60010161094d565b600054600160a060020a0316331461099557600080fd5b6106cf81610d7f565b6109a882826109b3565b151561059a57600080fd5b600160a060020a03166000908152602091909152604090205460ff1690565b610a3c826001836040518082805190602001908083835b60208310610a085780518252601f1990920191602091820191016109e9565b51815160209384036101000a6000190180199092169116179052920194855250604051938490030190922092915050610dfc565b81600160a060020a03167fd211483f91fc6eff862467f8de606587a30c8fc9981056f051b897a418df803a826040518080602001828103825283818151815260200191508051906020019080838360005b83811015610aa5578181015183820152602001610a8d565b50505050905090810190601f168015610ad25780820380516001836020036101000a031916815260200191505b509250505060405180910390a25050565b610b4d826001836040518082805190602001908083835b60208310610b195780518252601f199092019160209182019101610afa565b51815160209384036101000a6000190180199092169116179052920194855250604051938490030190922092915050610e1e565b81600160a060020a03167fbfec83d64eaa953f2708271a023ab9ee82057f8f3578d548c1a4ba0b5b7004898260405180806020018281038252838181518152602001915080519060200190808383600083811015610aa5578181015183820152602001610a8d565b3360009081526002602052604081205481908190841115610bd557600080fd5b600454610c169069ffffffffffffffffffff6a01000000000000000000008204811691610c0a9188911663ffffffff610e4316565b9063ffffffff610e6c16565b9150610c28848363ffffffff610e8116565b33600090815260026020526040902054909150610c4b908563ffffffff610e8116565b33600090815260026020526040808220929092558054600160a060020a031681522054610c7e908563ffffffff610e9316565b60008054600160a060020a03168152600260205260409020559392505050565b33600090815260026020526040812054821115610cba57600080fd5b600160a060020a0383161515610ccf57600080fd5b33600090815260026020526040902054610cef908363ffffffff610e8116565b3360009081526002602052604080822092909255600160a060020a03851681522054610d21908363ffffffff610e9316565b600160a060020a0384166000818152600260209081526040918290209390935580518581529051919233927fddf252ad1be2c89b69c2b068fc378daa952ba7f163c4a11628f55a4df523b3ef9281900390910190a350600192915050565b600160a060020a0381161515610d9457600080fd5b60008054604051600160a060020a03808516939216917f8be0079c531659141344cd1fd0a4f28419497f9722a3daafe3b4186f6b6457e091a36000805473ffffffffffffffffffffffffffffffffffffffff1916600160a060020a0392909216919091179055565b600160a060020a0316600090815260209190915260409020805460ff19169055565b600160a060020a0316600090815260209190915260409020805460ff19166001179055565b6000821515610e5457506000610638565b50818102818382811515610e6457fe5b041461063857fe5b60008183811515610e7957fe5b049392505050565b600082821115610e8d57fe5b50900390565b8181018281101561063857fe0077686974656c6973740000000000000000000000000000000000000000000000a165627a7a72305820ff04560b67d2a94430d8f361946cfe78ac81dd2857268765e49878ee6ab2b5f60029",
  "source": "pragma solidity ^0.4.24;\r\n\r\nimport '../node_modules/openzeppelin-solidity/contracts/access/Whitelist.sol';\r\nimport '../node_modules/openzeppelin-solidity/contracts/token/ERC20/BasicToken.sol';\r\nimport '../node_modules/openzeppelin-solidity/contracts/token/ERC20/DetailedERC20.sol';\r\n\r\n// This is just a simple example of a coin-like contract.\r\n// It is not standards compatible and cannot be expected to talk to other\r\n// coin/token contracts. If you want to create a standards-compliant\r\n// token, see: https://github.com/ConsenSys/Tokens. Cheers!\r\n\r\ncontract Chivilcoin is Whitelist, BasicToken {\r\n\tuint80 internal feeNumerator = 2;\r\n\tuint80 internal feeDenominator = 10;\r\n\tuint256 internal MIN_VALUE = 100;\r\n\r\n\tstring public name = \"Chivilcoin\";\r\n\tstring public symbol = \"CHC\";\r\n\tuint8 public decimals = 4;\r\n\r\n\tconstructor() Ownable() public {\r\n\t\ttotalSupply_ = 100000;\r\n\t\tbalances[msg.sender] = totalSupply_;\r\n\t}\r\n\r\n\tfunction transfer(address _to, uint256 _value) onlyIfWhitelisted(msg.sender) withMin(_value) onlyIfWhitelisted(_to) public returns (bool) {\r\n\t\tuint256 valueWithoutFee = sendFee(_value);\r\n\t\tBasicToken.transfer(_to, valueWithoutFee);\r\n\t}\r\n\r\n\tfunction sendFee(uint256 _value) internal returns(uint256) {\r\n\t\trequire(_value <= balances[msg.sender]);\r\n\r\n\t\tuint256 fee = _value.mul(feeNumerator).div(feeDenominator);\r\n\t\tuint256 valueWithoutFee = _value.sub(fee);\r\n\r\n\t\tbalances[msg.sender] = balances[msg.sender].sub(_value);\r\n\t    balances[owner] = balances[owner].add(_value);\r\n\r\n\t\t//BasicToken.transfer(owner,fee);\r\n\t\treturn valueWithoutFee;\r\n\t}\r\n\r\n  /**\r\n   * @dev Throws if operator is not whitelisted.\r\n   * @param _value address\r\n   */\r\n  modifier withMin(uint256 _value) {\r\n    require(_value >= MIN_VALUE,\"Muy pocos chivilcoins, ratón!\");\r\n    _;\r\n  }\r\n\r\n\t//Fallback\r\n\tfunction() external {\r\n\t}\r\n}\r\n",
  "sourcePath": "C:\\Users\\Pocho\\Documents\\Proyectos\\Chivilcoin\\chivilcoin\\contracts\\Chivilcoin.sol",
  "compiler": {
    "name": "solc",
    "version": "0.4.24+commit.e67f0147.Emscripten.clang"
  },
  "schemaVersion": "2.0.1",
  "updatedAt": "2018-09-04T22:51:23.258Z"
}