{
  "contractName": "Chivilcoin",
  "abi": [
    {
      "constant": true,
      "inputs": [],
      "name": "name",
      "outputs": [
        {
          "name": "",
          "type": "string"
        }
      ],
      "payable": false,
      "stateMutability": "view",
      "type": "function"
    },
    {
      "constant": true,
      "inputs": [
        {
          "name": "_operator",
          "type": "address"
        },
        {
          "name": "_role",
          "type": "string"
        }
      ],
      "name": "checkRole",
      "outputs": [],
      "payable": false,
      "stateMutability": "view",
      "type": "function"
    },
    {
      "constant": true,
      "inputs": [],
      "name": "totalSupply",
      "outputs": [
        {
          "name": "",
          "type": "uint256"
        }
      ],
      "payable": false,
      "stateMutability": "view",
      "type": "function"
    },
    {
      "constant": true,
      "inputs": [],
      "name": "ROLE_WHITELISTED",
      "outputs": [
        {
          "name": "",
          "type": "string"
        }
      ],
      "payable": false,
      "stateMutability": "view",
      "type": "function"
    },
    {
      "constant": true,
      "inputs": [
        {
          "name": "_operator",
          "type": "address"
        },
        {
          "name": "_role",
          "type": "string"
        }
      ],
      "name": "hasRole",
      "outputs": [
        {
          "name": "",
          "type": "bool"
        }
      ],
      "payable": false,
      "stateMutability": "view",
      "type": "function"
    },
    {
      "constant": false,
      "inputs": [
        {
          "name": "_operators",
          "type": "address[]"
        }
      ],
      "name": "removeAddressesFromWhitelist",
      "outputs": [],
      "payable": false,
      "stateMutability": "nonpayable",
      "type": "function"
    },
    {
      "constant": false,
      "inputs": [
        {
          "name": "myid",
          "type": "bytes32"
        },
        {
          "name": "result",
          "type": "string"
        }
      ],
      "name": "__callback",
      "outputs": [],
      "payable": false,
      "stateMutability": "nonpayable",
      "type": "function"
    },
    {
      "constant": false,
      "inputs": [
        {
          "name": "_operator",
          "type": "address"
        }
      ],
      "name": "removeAddressFromWhitelist",
      "outputs": [],
      "payable": false,
      "stateMutability": "nonpayable",
      "type": "function"
    },
    {
      "constant": true,
      "inputs": [],
      "name": "decimals",
      "outputs": [
        {
          "name": "",
          "type": "uint8"
        }
      ],
      "payable": false,
      "stateMutability": "view",
      "type": "function"
    },
    {
      "constant": false,
      "inputs": [
        {
          "name": "myid",
          "type": "bytes32"
        },
        {
          "name": "result",
          "type": "string"
        },
        {
          "name": "proof",
          "type": "bytes"
        }
      ],
      "name": "__callback",
      "outputs": [],
      "payable": false,
      "stateMutability": "nonpayable",
      "type": "function"
    },
    {
      "constant": true,
      "inputs": [
        {
          "name": "_owner",
          "type": "address"
        }
      ],
      "name": "balanceOf",
      "outputs": [
        {
          "name": "",
          "type": "uint256"
        }
      ],
      "payable": false,
      "stateMutability": "view",
      "type": "function"
    },
    {
      "constant": false,
      "inputs": [],
      "name": "renounceOwnership",
      "outputs": [],
      "payable": false,
      "stateMutability": "nonpayable",
      "type": "function"
    },
    {
      "constant": false,
      "inputs": [
        {
          "name": "_operator",
          "type": "address"
        }
      ],
      "name": "addAddressToWhitelist",
      "outputs": [],
      "payable": false,
      "stateMutability": "nonpayable",
      "type": "function"
    },
    {
      "constant": false,
      "inputs": [
        {
          "name": "delay",
          "type": "uint256"
        }
      ],
      "name": "updatePrice",
      "outputs": [],
      "payable": true,
      "stateMutability": "payable",
      "type": "function"
    },
    {
      "constant": true,
      "inputs": [],
      "name": "owner",
      "outputs": [
        {
          "name": "",
          "type": "address"
        }
      ],
      "payable": false,
      "stateMutability": "view",
      "type": "function"
    },
    {
      "constant": true,
      "inputs": [],
      "name": "symbol",
      "outputs": [
        {
          "name": "",
          "type": "string"
        }
      ],
      "payable": false,
      "stateMutability": "view",
      "type": "function"
    },
    {
      "constant": true,
      "inputs": [
        {
          "name": "_operator",
          "type": "address"
        }
      ],
      "name": "whitelist",
      "outputs": [
        {
          "name": "",
          "type": "bool"
        }
      ],
      "payable": false,
      "stateMutability": "view",
      "type": "function"
    },
    {
      "constant": false,
      "inputs": [
        {
          "name": "_operators",
          "type": "address[]"
        }
      ],
      "name": "addAddressesToWhitelist",
      "outputs": [],
      "payable": false,
      "stateMutability": "nonpayable",
      "type": "function"
    },
    {
      "constant": false,
      "inputs": [
        {
          "name": "_newOwner",
          "type": "address"
        }
      ],
      "name": "transferOwnership",
      "outputs": [],
      "payable": false,
      "stateMutability": "nonpayable",
      "type": "function"
    },
    {
      "constant": true,
      "inputs": [],
      "name": "bitcoinPrice",
      "outputs": [
        {
          "name": "",
          "type": "uint256"
        }
      ],
      "payable": false,
      "stateMutability": "view",
      "type": "function"
    },
    {
      "inputs": [],
      "payable": false,
      "stateMutability": "nonpayable",
      "type": "constructor"
    },
    {
      "payable": false,
      "stateMutability": "nonpayable",
      "type": "fallback"
    },
    {
      "anonymous": false,
      "inputs": [
        {
          "indexed": false,
          "name": "description",
          "type": "string"
        }
      ],
      "name": "newOraclizeQuery",
      "type": "event"
    },
    {
      "anonymous": false,
      "inputs": [
        {
          "indexed": false,
          "name": "description",
          "type": "string"
        }
      ],
      "name": "newOraclizeQueryFailed",
      "type": "event"
    },
    {
      "anonymous": false,
      "inputs": [
        {
          "indexed": false,
          "name": "myid",
          "type": "bytes32"
        },
        {
          "indexed": false,
          "name": "price",
          "type": "uint256"
        }
      ],
      "name": "newKrakenPriceTicker",
      "type": "event"
    },
    {
      "anonymous": false,
      "inputs": [
        {
          "indexed": true,
          "name": "from",
          "type": "address"
        },
        {
          "indexed": true,
          "name": "to",
          "type": "address"
        },
        {
          "indexed": false,
          "name": "value",
          "type": "uint256"
        }
      ],
      "name": "Transfer",
      "type": "event"
    },
    {
      "anonymous": false,
      "inputs": [
        {
          "indexed": true,
          "name": "operator",
          "type": "address"
        },
        {
          "indexed": false,
          "name": "role",
          "type": "string"
        }
      ],
      "name": "RoleAdded",
      "type": "event"
    },
    {
      "anonymous": false,
      "inputs": [
        {
          "indexed": true,
          "name": "operator",
          "type": "address"
        },
        {
          "indexed": false,
          "name": "role",
          "type": "string"
        }
      ],
      "name": "RoleRemoved",
      "type": "event"
    },
    {
      "anonymous": false,
      "inputs": [
        {
          "indexed": true,
          "name": "previousOwner",
          "type": "address"
        }
      ],
      "name": "OwnershipRenounced",
      "type": "event"
    },
    {
      "anonymous": false,
      "inputs": [
        {
          "indexed": true,
          "name": "previousOwner",
          "type": "address"
        },
        {
          "indexed": true,
          "name": "newOwner",
          "type": "address"
        }
      ],
      "name": "OwnershipTransferred",
      "type": "event"
    },
    {
      "constant": false,
      "inputs": [
        {
          "name": "_to",
          "type": "address"
        },
        {
          "name": "_value",
          "type": "uint256"
        }
      ],
      "name": "transfer",
      "outputs": [
        {
          "name": "",
          "type": "bool"
        }
      ],
      "payable": false,
      "stateMutability": "nonpayable",
      "type": "function"
    },
    {
      "constant": false,
      "inputs": [],
      "name": "kill",
      "outputs": [],
      "payable": false,
      "stateMutability": "nonpayable",
      "type": "function"
    }
  ],
  "bytecode": "0x600a805460026001605060020a031990911617605060020a60a060020a0319166a0a000000000000000000001781556064600b5560c060405260808190527f43686976696c636f696e0000000000000000000000000000000000000000000060a09081526200007291600c919062000e35565b506040805180820190915260038082527f43485600000000000000000000000000000000000000000000000000000000006020909201918252620000b991600d9162000e35565b50600e805460ff19166004179055348015620000d457600080fd5b5060008054600160a060020a03191633178155620000fb906401000000006200011c810204565b64174876e80060038190553360009081526002602052604090205562000ed7565b60408051808201909152600381527f55524c0000000000000000000000000000000000000000000000000000000000602082015230319062000167906401000000006200037e810204565b11156200022057604080516020808252604b908201527f4f7261636c697a6520717565727920776173204e4f542073656e742c20706c65818301527f6173652061646420736f6d652045544820746f20636f76657220666f7220746860608201527f6520717565727920666565000000000000000000000000000000000000000000608082015290517febfd093e23e1dfa73590131dccff2037e056ac2c58e287c5670578093b32653f9181900360a00190a16200037b565b6040805160208082526035908201527f4f7261636c697a65207175657279207761732073656e742c207374616e64696e818301527f6720627920666f722074686520616e737765722e2e0000000000000000000000606082015290517f46cb989ef9cef13e930e3b7f286225a086e716a90d63e0b7da85d310a9db0c9a9181900360800190a162000379816040805190810160405280600381526020017f55524c0000000000000000000000000000000000000000000000000000000000815250608060405190810160405280604c81526020017f6a736f6e2868747470733a2f2f6170692e6b72616b656e2e636f6d2f302f707581526020017f626c69632f5469636b65723f706169723d584254555344292e726573756c742e81526020017f585842545a5553442e632e3000000000000000000000000000000000000000008152506200061f640100000000026401000000009004565b505b50565b600454600090600160a060020a03161580620003b75750600454620003b590600160a060020a031664010000000062000a59810204565b155b15620003d457620003d2600064010000000062000a5d810204565b505b60048054604080517f38cc48310000000000000000000000000000000000000000000000000000000081529051600160a060020a03909216926338cc48319282820192602092908290030181600087803b1580156200043257600080fd5b505af115801562000447573d6000803e3d6000fd5b505050506040513d60208110156200045e57600080fd5b5051600554600160a060020a03908116911614620005225760048054604080517f38cc48310000000000000000000000000000000000000000000000000000000081529051600160a060020a03909216926338cc48319282820192602092908290030181600087803b158015620004d457600080fd5b505af1158015620004e9573d6000803e3d6000fd5b505050506040513d60208110156200050057600080fd5b505160058054600160a060020a031916600160a060020a039092169190911790555b6005546040517f524f3889000000000000000000000000000000000000000000000000000000008152602060048201818152855160248401528551600160a060020a039094169363524f388993879383926044909201919085019080838360005b838110156200059d57818101518382015260200162000583565b50505050905090810190601f168015620005cb5780820380516001836020036101000a031916815260200191505b5092505050602060405180830381600087803b158015620005eb57600080fd5b505af115801562000600573d6000803e3d6000fd5b505050506040513d60208110156200061757600080fd5b505192915050565b6004546000908190600160a060020a031615806200065a57506004546200065890600160a060020a031664010000000062000a59810204565b155b15620006775762000675600064010000000062000a5d810204565b505b60048054604080517f38cc48310000000000000000000000000000000000000000000000000000000081529051600160a060020a03909216926338cc48319282820192602092908290030181600087803b158015620006d557600080fd5b505af1158015620006ea573d6000803e3d6000fd5b505050506040513d60208110156200070157600080fd5b5051600554600160a060020a03908116911614620007c55760048054604080517f38cc48310000000000000000000000000000000000000000000000000000000081529051600160a060020a03909216926338cc48319282820192602092908290030181600087803b1580156200077757600080fd5b505af11580156200078c573d6000803e3d6000fd5b505050506040513d6020811015620007a357600080fd5b505160058054600160a060020a031916600160a060020a039092169190911790555b6005546040517f524f3889000000000000000000000000000000000000000000000000000000008152602060048201818152875160248401528751600160a060020a039094169363524f388993899383926044909201919085019080838360005b838110156200084057818101518382015260200162000826565b50505050905090810190601f1680156200086e5780820380516001836020036101000a031916815260200191505b5092505050602060405180830381600087803b1580156200088e57600080fd5b505af1158015620008a3573d6000803e3d6000fd5b505050506040513d6020811015620008ba57600080fd5b50519050670de0b6b3a764000062030d403a0201811115620008e0576000915062000a51565b6005546040517fadf59f9900000000000000000000000000000000000000000000000000000000815260048101878152606060248301908152875160648401528751600160a060020a039094169363adf59f999386938b938b938b936044810191608490910190602087019080838360005b838110156200096c57818101518382015260200162000952565b50505050905090810190601f1680156200099a5780820380516001836020036101000a031916815260200191505b50838103825284518152845160209182019186019080838360005b83811015620009cf578181015183820152602001620009b5565b50505050905090810190601f168015620009fd5780820380516001836020036101000a031916815260200191505b50955050505050506020604051808303818588803b15801562000a1f57600080fd5b505af115801562000a34573d6000803e3d6000fd5b50505050506040513d602081101562000a4c57600080fd5b505191505b509392505050565b3b90565b600062000a7264010000000062000a78810204565b92915050565b60008062000aa3731d3b2638a7cc9f2cb3d298a3da7a90b67e5506ed64010000000062000a59810204565b111562000b215760048054600160a060020a031916731d3b2638a7cc9f2cb3d298a3da7a90b67e5506ed17905560408051808201909152600b81527f6574685f6d61696e6e6574000000000000000000000000000000000000000000602082015262000b189064010000000062000e25810204565b50600162000e22565b600062000b4b73c03a2615d5efaf5f49f60b7bb6583eaec212fdf164010000000062000a59810204565b111562000bc05760048054600160a060020a03191673c03a2615d5efaf5f49f60b7bb6583eaec212fdf117905560408051808201909152600c81527f6574685f726f707374656e330000000000000000000000000000000000000000602082015262000b189064010000000062000e25810204565b600062000bea73b7a07bcf2ba2f2703b24c0691b5278999c59ac7e64010000000062000a59810204565b111562000c5f5760048054600160a060020a03191673b7a07bcf2ba2f2703b24c0691b5278999c59ac7e17905560408051808201909152600981527f6574685f6b6f76616e0000000000000000000000000000000000000000000000602082015262000b189064010000000062000e25810204565b600062000c8973146500cfd35b22e4a392fe0adc06de1a1368ed4864010000000062000a59810204565b111562000cfe5760048054600160a060020a03191673146500cfd35b22e4a392fe0adc06de1a1368ed4817905560408051808201909152600b81527f6574685f72696e6b656279000000000000000000000000000000000000000000602082015262000b189064010000000062000e25810204565b600062000d28736f485c8bf6fc43ea212e93bbf8ce046c7f1cb47564010000000062000a59810204565b111562000d5e575060048054600160a060020a031916736f485c8bf6fc43ea212e93bbf8ce046c7f1cb475179055600162000e22565b600062000d887320e12a1f859b3feae5fb2a0a32c18f5a65555bbf64010000000062000a59810204565b111562000dbe575060048054600160a060020a0319167320e12a1f859b3feae5fb2a0a32c18f5a65555bbf179055600162000e22565b600062000de87351efaf4c8b3c9afbd5ab9f4bbc82784ab6ef8faa64010000000062000a59810204565b111562000e1e575060048054600160a060020a0319167351efaf4c8b3c9afbd5ab9f4bbc82784ab6ef8faa179055600162000e22565b5060005b90565b8051620003799060069060208401905b828054600181600116156101000203166002900490600052602060002090601f016020900481019282601f1062000e7857805160ff191683800117855562000ea8565b8280016001018555821562000ea8579182015b8281111562000ea857825182559160200191906001019062000e8b565b5062000eb692915062000eba565b5090565b62000e2291905b8082111562000eb6576000815560010162000ec1565b6120e58062000ee76000396000f3006080604052600436106101275763ffffffff7c010000000000000000000000000000000000000000000000000000000060003504166306fdde0381146101365780630988ca8c146101c057806318160ddd1461022957806318b919e914610250578063217fe6c61461026557806324953eaa146102e057806327dc297e14610335578063286dd3f514610393578063313ce567146103b457806338bbfa50146103df57806341c0e1b51461047b57806370a0823114610490578063715018a6146104b15780637b9417c8146104c65780638d6cc56d146104e75780638da5cb5b146104f257806395d89b41146105235780639b19251a14610538578063a9059cbb14610559578063e2ec6ec31461057d578063f2fde38b146105d2578063f9ddf3ed146105f3575b34801561013357600080fd5b50005b34801561014257600080fd5b5061014b610608565b6040805160208082528351818301528351919283929083019185019080838360005b8381101561018557818101518382015260200161016d565b50505050905090810190601f1680156101b25780820380516001836020036101000a031916815260200191505b509250505060405180910390f35b3480156101cc57600080fd5b5060408051602060046024803582810135601f8101859004850286018501909652858552610227958335600160a060020a03169536956044949193909101919081908401838280828437509497506106969650505050505050565b005b34801561023557600080fd5b5061023e610704565b60408051918252519081900360200190f35b34801561025c57600080fd5b5061014b61070b565b34801561027157600080fd5b5060408051602060046024803582810135601f81018590048502860185019096528585526102cc958335600160a060020a03169536956044949193909101919081908401838280828437509497506107309650505050505050565b604080519115158252519081900360200190f35b3480156102ec57600080fd5b5060408051602060048035808201358381028086018501909652808552610227953695939460249493850192918291850190849080828437509497506107a59650505050505050565b34801561034157600080fd5b5060408051602060046024803582810135601f81018590048502860185019096528585526102279583359536956044949193909101919081908401838280828437509497506107f29650505050505050565b34801561039f57600080fd5b50610227600160a060020a036004351661080e565b3480156103c057600080fd5b506103c9610855565b6040805160ff9092168252519081900360200190f35b3480156103eb57600080fd5b5060408051602060046024803582810135601f810185900485028601850190965285855261022795833595369560449491939091019190819084018382808284375050604080516020601f89358b018035918201839004830284018301909452808352979a99988101979196509182019450925082915084018382808284375094975061085e9650505050505050565b34801561048757600080fd5b506102276108ca565b34801561049c57600080fd5b5061023e600160a060020a03600435166108ef565b3480156104bd57600080fd5b5061022761090a565b3480156104d257600080fd5b50610227600160a060020a0360043516610969565b6102276004356109ad565b3480156104fe57600080fd5b50610507610bec565b60408051600160a060020a039092168252519081900360200190f35b34801561052f57600080fd5b5061014b610bfb565b34801561054457600080fd5b506102cc600160a060020a0360043516610c56565b34801561056557600080fd5b506102cc600160a060020a0360043516602435610c85565b34801561058957600080fd5b506040805160206004803580820135838102808601850190965280855261022795369593946024949385019291829185019084908082843750949750610d779650505050505050565b3480156105de57600080fd5b50610227600160a060020a0360043516610dc4565b3480156105ff57600080fd5b5061023e610de4565b600c805460408051602060026001851615610100026000190190941693909304601f8101849004840282018401909252818152929183018282801561068e5780601f106106635761010080835404028352916020019161068e565b820191906000526020600020905b81548152906001019060200180831161067157829003601f168201915b505050505081565b610700826001836040518082805190602001908083835b602083106106cc5780518252601f1990920191602091820191016106ad565b51815160209384036101000a6000190180199092169116179052920194855250604051938490030190922092915050610dea565b5050565b6003545b90565b604080518082019091526009815260008051602061209a833981519152602082015281565b600061079c836001846040518082805190602001908083835b602083106107685780518252601f199092019160209182019101610749565b51815160209384036101000a6000190180199092169116179052920194855250604051938490030190922092915050610dff565b90505b92915050565b60008054600160a060020a031633146107bd57600080fd5b5060005b8151811015610700576107ea82828151811015156107db57fe5b9060200190602002015161080e565b6001016107c1565b604080516000815260208101909152610700908390839061085e565b600054600160a060020a0316331461082557600080fd5b6108528160408051908101604052806009815260200160008051602061209a833981519152815250610e1e565b50565b600e5460ff1681565b610866610f2f565b600160a060020a0316331461087a57600080fd5b610885826002611125565b600981905560408051858152602081019290925280517f0e38e25a65ef55714eeae860b64a704ae6ec0abf819f791e9303dafca29f18fa9281900390910190a1505050565b600054600160a060020a031633146108e157600080fd5b600054600160a060020a0316ff5b600160a060020a031660009081526002602052604090205490565b600054600160a060020a0316331461092157600080fd5b60008054604051600160a060020a03909116917ff8df31144d9c2f0f6b59d69b8b98abd5459d07f2742c4df920b25aae33c6482091a260008054600160a060020a0319169055565b600054600160a060020a0316331461098057600080fd5b6108528160408051908101604052806009815260200160008051602061209a8339815191528152506112df565b60408051808201909152600381527f55524c000000000000000000000000000000000000000000000000000000000060208201523031906109ed906113b1565b1115610aa457604080516020808252604b908201527f4f7261636c697a6520717565727920776173204e4f542073656e742c20706c65818301527f6173652061646420736f6d652045544820746f20636f76657220666f7220746860608201527f6520717565727920666565000000000000000000000000000000000000000000608082015290517febfd093e23e1dfa73590131dccff2037e056ac2c58e287c5670578093b32653f9181900360a00190a1610852565b6040805160208082526035908201527f4f7261636c697a65207175657279207761732073656e742c207374616e64696e818301527f6720627920666f722074686520616e737765722e2e0000000000000000000000606082015290517f46cb989ef9cef13e930e3b7f286225a086e716a90d63e0b7da85d310a9db0c9a9181900360800190a1610700816040805190810160405280600381526020017f55524c0000000000000000000000000000000000000000000000000000000000815250608060405190810160405280604c81526020017f6a736f6e2868747470733a2f2f6170692e6b72616b656e2e636f6d2f302f707581526020017f626c69632f5469636b65723f706169723d584254555344292e726573756c742e81526020017f585842545a5553442e632e300000000000000000000000000000000000000000815250611601565b600054600160a060020a031681565b600d805460408051602060026001851615610100026000190190941693909304601f8101849004840282018401909252818152929183018282801561068e5780601f106106635761010080835404028352916020019161068e565b600061079f8260408051908101604052806009815260200160008051602061209a833981519152815250610730565b60008033610cb68160408051908101604052806009815260200160008051602061209a833981519152815250610696565b600b548490811015610d2957604080517f08c379a000000000000000000000000000000000000000000000000000000000815260206004820152601e60248201527f4d757920706f636f732063686976696c636f696e732c20726174c3b36e210000604482015290519081900360640190fd5b85610d578160408051908101604052806009815260200160008051602061209a833981519152815250610696565b610d60866119df565b9350610d6c8785611ac8565b505050505092915050565b60008054600160a060020a03163314610d8f57600080fd5b5060005b815181101561070057610dbc8282815181101515610dad57fe5b90602001906020020151610969565b600101610d93565b600054600160a060020a03163314610ddb57600080fd5b61085281611ba9565b60095481565b610df48282610dff565b151561070057600080fd5b600160a060020a03166000908152602091909152604090205460ff1690565b610e88826001836040518082805190602001908083835b60208310610e545780518252601f199092019160209182019101610e35565b51815160209384036101000a6000190180199092169116179052920194855250604051938490030190922092915050611c19565b81600160a060020a03167fd211483f91fc6eff862467f8de606587a30c8fc9981056f051b897a418df803a826040518080602001828103825283818151815260200191508051906020019080838360005b83811015610ef1578181015183820152602001610ed9565b50505050905090810190601f168015610f1e5780820380516001836020036101000a031916815260200191505b509250505060405180910390a25050565b600454600090600160a060020a03161580610f5c5750600454610f5a90600160a060020a0316611c3b565b155b15610f6d57610f6b6000611c3f565b505b600480546040805160e060020a6338cc48310281529051600160a060020a03909216926338cc48319282820192602092908290030181600087803b158015610fb457600080fd5b505af1158015610fc8573d6000803e3d6000fd5b505050506040513d6020811015610fde57600080fd5b5051600554600160a060020a0390811691161461108857600480546040805160e060020a6338cc48310281529051600160a060020a03909216926338cc48319282820192602092908290030181600087803b15801561103c57600080fd5b505af1158015611050573d6000803e3d6000fd5b505050506040513d602081101561106657600080fd5b505160058054600160a060020a031916600160a060020a039092169190911790555b600560009054906101000a9004600160a060020a0316600160a060020a031663c281d19e6040518163ffffffff167c0100000000000000000000000000000000000000000000000000000000028152600401602060405180830381600087803b1580156110f457600080fd5b505af1158015611108573d6000803e3d6000fd5b505050506040513d602081101561111e57600080fd5b5051905090565b6000828180805b83518110156112c25783517f30000000000000000000000000000000000000000000000000000000000000009085908390811061116557fe5b90602001015160f860020a900460f860020a027effffffffffffffffffffffffffffffffffffffffffffffffffffffffffffff19161015801561120b575083517f3900000000000000000000000000000000000000000000000000000000000000908590839081106111d357fe5b90602001015160f860020a900460f860020a027effffffffffffffffffffffffffffffffffffffffffffffffffffffffffffff191611155b1561126457811561122a57851515611222576112c2565b600019909501945b600a830292506030848281518110151561124057fe5b90602001015160f860020a900460f860020a0260f860020a900403830192506112ba565b838181518110151561127257fe5b90602001015160f860020a900460f860020a027effffffffffffffffffffffffffffffffffffffffffffffffffffffffffffff1916602e60f860020a0214156112ba57600191505b60010161112c565b60008611156112d45785600a0a830292505b509095945050505050565b611349826001836040518082805190602001908083835b602083106113155780518252601f1990920191602091820191016112f6565b51815160209384036101000a6000190180199092169116179052920194855250604051938490030190922092915050611c49565b81600160a060020a03167fbfec83d64eaa953f2708271a023ab9ee82057f8f3578d548c1a4ba0b5b7004898260405180806020018281038252838181518152602001915080519060200190808383600083811015610ef1578181015183820152602001610ed9565b600454600090600160a060020a031615806113de57506004546113dc90600160a060020a0316611c3b565b155b156113ef576113ed6000611c3f565b505b600480546040805160e060020a6338cc48310281529051600160a060020a03909216926338cc48319282820192602092908290030181600087803b15801561143657600080fd5b505af115801561144a573d6000803e3d6000fd5b505050506040513d602081101561146057600080fd5b5051600554600160a060020a0390811691161461150a57600480546040805160e060020a6338cc48310281529051600160a060020a03909216926338cc48319282820192602092908290030181600087803b1580156114be57600080fd5b505af11580156114d2573d6000803e3d6000fd5b505050506040513d60208110156114e857600080fd5b505160058054600160a060020a031916600160a060020a039092169190911790555b6005546040517f524f3889000000000000000000000000000000000000000000000000000000008152602060048201818152855160248401528551600160a060020a039094169363524f388993879383926044909201919085019080838360005b8381101561158357818101518382015260200161156b565b50505050905090810190601f1680156115b05780820380516001836020036101000a031916815260200191505b5092505050602060405180830381600087803b1580156115cf57600080fd5b505af11580156115e3573d6000803e3d6000fd5b505050506040513d60208110156115f957600080fd5b505192915050565b6004546000908190600160a060020a03161580611630575060045461162e90600160a060020a0316611c3b565b155b156116415761163f6000611c3f565b505b600480546040805160e060020a6338cc48310281529051600160a060020a03909216926338cc48319282820192602092908290030181600087803b15801561168857600080fd5b505af115801561169c573d6000803e3d6000fd5b505050506040513d60208110156116b257600080fd5b5051600554600160a060020a0390811691161461175c57600480546040805160e060020a6338cc48310281529051600160a060020a03909216926338cc48319282820192602092908290030181600087803b15801561171057600080fd5b505af1158015611724573d6000803e3d6000fd5b505050506040513d602081101561173a57600080fd5b505160058054600160a060020a031916600160a060020a039092169190911790555b6005546040517f524f3889000000000000000000000000000000000000000000000000000000008152602060048201818152875160248401528751600160a060020a039094169363524f388993899383926044909201919085019080838360005b838110156117d55781810151838201526020016117bd565b50505050905090810190601f1680156118025780820380516001836020036101000a031916815260200191505b5092505050602060405180830381600087803b15801561182157600080fd5b505af1158015611835573d6000803e3d6000fd5b505050506040513d602081101561184b57600080fd5b50519050670de0b6b3a764000062030d403a020181111561186f57600091506119d7565b6005546040517fadf59f9900000000000000000000000000000000000000000000000000000000815260048101878152606060248301908152875160648401528751600160a060020a039094169363adf59f999386938b938b938b936044810191608490910190602087019080838360005b838110156118f95781810151838201526020016118e1565b50505050905090810190601f1680156119265780820380516001836020036101000a031916815260200191505b50838103825284518152845160209182019186019080838360005b83811015611959578181015183820152602001611941565b50505050905090810190601f1680156119865780820380516001836020036101000a031916815260200191505b50955050505050506020604051808303818588803b1580156119a757600080fd5b505af11580156119bb573d6000803e3d6000fd5b50505050506040513d60208110156119d257600080fd5b505191505b509392505050565b33600090815260026020526040812054819081908411156119ff57600080fd5b600a54611a409069ffffffffffffffffffff6a01000000000000000000008204811691611a349188911663ffffffff611c6e16565b9063ffffffff611c9716565b9150611a52848363ffffffff611cac16565b33600090815260026020526040902054909150611a75908563ffffffff611cac16565b33600090815260026020526040808220929092558054600160a060020a031681522054611aa8908563ffffffff611cbe16565b60008054600160a060020a03168152600260205260409020559392505050565b33600090815260026020526040812054821115611ae457600080fd5b600160a060020a0383161515611af957600080fd5b33600090815260026020526040902054611b19908363ffffffff611cac16565b3360009081526002602052604080822092909255600160a060020a03851681522054611b4b908363ffffffff611cbe16565b600160a060020a0384166000818152600260209081526040918290209390935580518581529051919233927fddf252ad1be2c89b69c2b068fc378daa952ba7f163c4a11628f55a4df523b3ef9281900390910190a350600192915050565b600160a060020a0381161515611bbe57600080fd5b60008054604051600160a060020a03808516939216917f8be0079c531659141344cd1fd0a4f28419497f9722a3daafe3b4186f6b6457e091a360008054600160a060020a031916600160a060020a0392909216919091179055565b600160a060020a0316600090815260209190915260409020805460ff19169055565b3b90565b600061079f611ccb565b600160a060020a0316600090815260209190915260409020805460ff19166001179055565b6000821515611c7f5750600061079f565b50818102818382811515611c8f57fe5b041461079f57fe5b60008183811515611ca457fe5b049392505050565b600082821115611cb857fe5b50900390565b8181018281101561079f57fe5b600080611ceb731d3b2638a7cc9f2cb3d298a3da7a90b67e5506ed611c3b565b1115611d5c5760048054600160a060020a031916731d3b2638a7cc9f2cb3d298a3da7a90b67e5506ed17905560408051808201909152600b81527f6574685f6d61696e6e65740000000000000000000000000000000000000000006020820152611d5490611ff3565b506001610708565b6000611d7b73c03a2615d5efaf5f49f60b7bb6583eaec212fdf1611c3b565b1115611de45760048054600160a060020a03191673c03a2615d5efaf5f49f60b7bb6583eaec212fdf117905560408051808201909152600c81527f6574685f726f707374656e3300000000000000000000000000000000000000006020820152611d5490611ff3565b6000611e0373b7a07bcf2ba2f2703b24c0691b5278999c59ac7e611c3b565b1115611e6c5760048054600160a060020a03191673b7a07bcf2ba2f2703b24c0691b5278999c59ac7e17905560408051808201909152600981527f6574685f6b6f76616e00000000000000000000000000000000000000000000006020820152611d5490611ff3565b6000611e8b73146500cfd35b22e4a392fe0adc06de1a1368ed48611c3b565b1115611ef45760048054600160a060020a03191673146500cfd35b22e4a392fe0adc06de1a1368ed4817905560408051808201909152600b81527f6574685f72696e6b6562790000000000000000000000000000000000000000006020820152611d5490611ff3565b6000611f13736f485c8bf6fc43ea212e93bbf8ce046c7f1cb475611c3b565b1115611f47575060048054600160a060020a031916736f485c8bf6fc43ea212e93bbf8ce046c7f1cb4751790556001610708565b6000611f667320e12a1f859b3feae5fb2a0a32c18f5a65555bbf611c3b565b1115611f9a575060048054600160a060020a0319167320e12a1f859b3feae5fb2a0a32c18f5a65555bbf1790556001610708565b6000611fb97351efaf4c8b3c9afbd5ab9f4bbc82784ab6ef8faa611c3b565b1115611fed575060048054600160a060020a0319167351efaf4c8b3c9afbd5ab9f4bbc82784ab6ef8faa1790556001610708565b50600090565b8051610700906006906020840190828054600181600116156101000203166002900490600052602060002090601f016020900481019282601f1061204257805160ff191683800117855561206f565b8280016001018555821561206f579182015b8281111561206f578251825591602001919060010190612054565b5061207b92915061207f565b5090565b61070891905b8082111561207b5760008155600101612085560077686974656c6973740000000000000000000000000000000000000000000000a165627a7a7230582083243cf850a823024c64e9dc2f2c88406e748ee128c91f0c49c88693992c2d910029",
  "source": "pragma solidity ^0.4.24;\n\nimport '../node_modules/openzeppelin-solidity/contracts/access/Whitelist.sol';\nimport '../node_modules/openzeppelin-solidity/contracts/token/ERC20/BasicToken.sol';\nimport './BtcPriceGetter.sol';\n\n// This is just a simple example of a coin-like contract.\n// It is not standards compatible and cannot be expected to talk to other\n// coin/token contracts. If you want to create a standards-compliant\n// token, see: https://github.com/ConsenSys/Tokens. Cheers!\n\ncontract Chivilcoin is Whitelist, BasicToken, BtcPriceGetter {\n\tuint80 internal feeNumerator = 2;\n\tuint80 internal feeDenominator = 10;\n\tuint256 internal MIN_VALUE = 100;\n\n\tstring public name = \"Chivilcoin\";\n\tstring public symbol = \"CHV\";\n\tuint8 public decimals = 4;\n\n\tconstructor() Ownable() public {\n\t\ttotalSupply_ = 100000000000;\n\t\tbalances[msg.sender] = totalSupply_;\n\t}\n\n\tfunction transfer(address _to, uint256 _value) onlyIfWhitelisted(msg.sender) withMin(_value) onlyIfWhitelisted(_to) public returns (bool) {\n\t\tuint256 valueWithoutFee = sendFee(_value);\n\t\tBasicToken.transfer(_to, valueWithoutFee);\n\t}\n\n\tfunction sendFee(uint256 _value) internal returns(uint256) {\n\t\trequire(_value <= balances[msg.sender]);\n\n\t\tuint256 fee = _value.mul(feeNumerator).div(feeDenominator);\n\t\tuint256 valueWithoutFee = _value.sub(fee);\n\n\t\tbalances[msg.sender] = balances[msg.sender].sub(_value);\n\t  balances[owner] = balances[owner].add(_value);\n\n\t\t//BasicToken.transfer(owner,fee);\n\t\treturn valueWithoutFee;\n\t}\n\n  /**\n   * @dev Throws if operator is not whitelisted.\n   * @param _value address\n   */\n  modifier withMin(uint256 _value) {\n    require(_value >= MIN_VALUE,\"Muy pocos chivilcoins, ratn!\");\n    _;\n  }\n\n  function kill() onlyOwner() public {\n    selfdestruct(owner);\n  }\n\n\t//Fallback\n\tfunction() external {\n\t}\n}\n",
  "sourcePath": "/home/alex/Documentos/Proyectos/chivilcoin-frontend/chivilcoin/contracts/Chivilcoin.sol",
  "compiler": {
    "name": "solc",
    "version": "0.4.24+commit.e67f0147.Emscripten.clang"
  },
  "schemaVersion": "2.0.1",
  "updatedAt": "2018-09-07T15:15:31.388Z"
}